{
  "_format": "hh-sol-artifact-1",
  "contractName": "RealEstateShares",
  "sourceName": "contracts/RealEstateShares.sol",
  "abi": [
    {
      "inputs": [
        {
          "internalType": "string",
          "name": "_propertyName",
          "type": "string"
        },
        {
          "internalType": "uint256",
          "name": "_totalShares",
          "type": "uint256"
        },
        {
          "internalType": "uint256",
          "name": "_pricePerShare",
          "type": "uint256"
        }
      ],
      "stateMutability": "nonpayable",
      "type": "constructor"
    },
    {
      "anonymous": false,
      "inputs": [
        {
          "indexed": true,
          "internalType": "address",
          "name": "buyer",
          "type": "address"
        },
        {
          "indexed": false,
          "internalType": "uint256",
          "name": "amount",
          "type": "uint256"
        }
      ],
      "name": "SharesPurchased",
      "type": "event"
    },
    {
      "inputs": [
        {
          "internalType": "uint256",
          "name": "shareAmount",
          "type": "uint256"
        }
      ],
      "name": "buyShares",
      "outputs": [],
      "stateMutability": "payable",
      "type": "function"
    },
    {
      "inputs": [],
      "name": "getRemainingShares",
      "outputs": [
        {
          "internalType": "uint256",
          "name": "",
          "type": "uint256"
        }
      ],
      "stateMutability": "view",
      "type": "function"
    },
    {
      "inputs": [],
      "name": "owner",
      "outputs": [
        {
          "internalType": "address",
          "name": "",
          "type": "address"
        }
      ],
      "stateMutability": "view",
      "type": "function"
    },
    {
      "inputs": [],
      "name": "pricePerShare",
      "outputs": [
        {
          "internalType": "uint256",
          "name": "",
          "type": "uint256"
        }
      ],
      "stateMutability": "view",
      "type": "function"
    },
    {
      "inputs": [],
      "name": "propertyName",
      "outputs": [
        {
          "internalType": "string",
          "name": "",
          "type": "string"
        }
      ],
      "stateMutability": "view",
      "type": "function"
    },
    {
      "inputs": [
        {
          "internalType": "address",
          "name": "",
          "type": "address"
        }
      ],
      "name": "sharesOwned",
      "outputs": [
        {
          "internalType": "uint256",
          "name": "",
          "type": "uint256"
        }
      ],
      "stateMutability": "view",
      "type": "function"
    },
    {
      "inputs": [],
      "name": "sharesSold",
      "outputs": [
        {
          "internalType": "uint256",
          "name": "",
          "type": "uint256"
        }
      ],
      "stateMutability": "view",
      "type": "function"
    },
    {
      "inputs": [],
      "name": "totalShares",
      "outputs": [
        {
          "internalType": "uint256",
          "name": "",
          "type": "uint256"
        }
      ],
      "stateMutability": "view",
      "type": "function"
    },
    {
      "inputs": [],
      "name": "withdraw",
      "outputs": [],
      "stateMutability": "nonpayable",
      "type": "function"
    }
  ],
  "bytecode": "0x608060405234801561001057600080fd5b5060405161139a38038061139a8339818101604052810190610032919061030e565b6000835111610076576040517f08c379a000000000000000000000000000000000000000000000000000000000815260040161006d906103da565b60405180910390fd5b600082116100b9576040517f08c379a00000000000000000000000000000000000000000000000000000000081526004016100b09061046c565b60405180910390fd5b600081116100fc576040517f08c379a00000000000000000000000000000000000000000000000000000000081526004016100f3906104fe565b60405180910390fd5b826000908161010b9190610735565b50816001819055508060028190555033600460006101000a81548173ffffffffffffffffffffffffffffffffffffffff021916908373ffffffffffffffffffffffffffffffffffffffff160217905550505050610807565b6000604051905090565b600080fd5b600080fd5b600080fd5b600080fd5b6000601f19601f8301169050919050565b7f4e487b7100000000000000000000000000000000000000000000000000000000600052604160045260246000fd5b6101ca82610181565b810181811067ffffffffffffffff821117156101e9576101e8610192565b5b80604052505050565b60006101fc610163565b905061020882826101c1565b919050565b600067ffffffffffffffff82111561022857610227610192565b5b61023182610181565b9050602081019050919050565b60005b8381101561025c578082015181840152602081019050610241565b60008484015250505050565b600061027b6102768461020d565b6101f2565b9050828152602081018484840111156102975761029661017c565b5b6102a284828561023e565b509392505050565b600082601f8301126102bf576102be610177565b5b81516102cf848260208601610268565b91505092915050565b6000819050919050565b6102eb816102d8565b81146102f657600080fd5b50565b600081519050610308816102e2565b92915050565b6000806000606084860312156103275761032661016d565b5b600084015167ffffffffffffffff81111561034557610344610172565b5b610351868287016102aa565b9350506020610362868287016102f9565b9250506040610373868287016102f9565b9150509250925092565b600082825260208201905092915050565b7f50726f7065727479206e616d6520726571756972656400000000000000000000600082015250565b60006103c460168361037d565b91506103cf8261038e565b602082019050919050565b600060208201905081810360008301526103f3816103b7565b9050919050565b7f546f74616c20736861726573206d75737420626520677265617465722074686160008201527f6e20300000000000000000000000000000000000000000000000000000000000602082015250565b600061045660238361037d565b9150610461826103fa565b604082019050919050565b6000602082019050818103600083015261048581610449565b9050919050565b7f507269636520706572207368617265206d75737420626520677265617465722060008201527f7468616e20300000000000000000000000000000000000000000000000000000602082015250565b60006104e860268361037d565b91506104f38261048c565b604082019050919050565b60006020820190508181036000830152610517816104db565b9050919050565b600081519050919050565b7f4e487b7100000000000000000000000000000000000000000000000000000000600052602260045260246000fd5b6000600282049050600182168061057057607f821691505b60208210810361058357610582610529565b5b50919050565b60008190508160005260206000209050919050565b60006020601f8301049050919050565b600082821b905092915050565b6000600883026105eb7fffffffffffffffffffffffffffffffffffffffffffffffffffffffffffffffff826105ae565b6105f586836105ae565b95508019841693508086168417925050509392505050565b6000819050919050565b600061063261062d610628846102d8565b61060d565b6102d8565b9050919050565b6000819050919050565b61064c83610617565b61066061065882610639565b8484546105bb565b825550505050565b600090565b610675610668565b610680818484610643565b505050565b5b818110156106a45761069960008261066d565b600181019050610686565b5050565b601f8211156106e9576106ba81610589565b6106c38461059e565b810160208510156106d2578190505b6106e66106de8561059e565b830182610685565b50505b505050565b600082821c905092915050565b600061070c600019846008026106ee565b1980831691505092915050565b600061072583836106fb565b9150826002028217905092915050565b61073e8261051e565b67ffffffffffffffff81111561075757610756610192565b5b6107618254610558565b61076c8282856106a8565b600060209050601f83116001811461079f576000841561078d578287015190505b6107978582610719565b8655506107ff565b601f1984166107ad86610589565b60005b828110156107d5578489015182556001820191506020850194506020810190506107b0565b868310156107f257848901516107ee601f8916826106fb565b8355505b6001600288020188555050505b505050505050565b610b84806108166000396000f3fe6080604052600436106100865760003560e01c80633ccfd60b116100595780633ccfd60b146101495780638da5cb5b1461016057806399530b061461018b578063d1a93d18146101b6578063f9ab7118146101d257610086565b80631810d8591461008b578063192fc516146100c85780632c35c08c146100f35780633a98ef391461011e575b600080fd5b34801561009757600080fd5b506100b260048036038101906100ad919061063d565b6101fd565b6040516100bf9190610683565b60405180910390f35b3480156100d457600080fd5b506100dd610215565b6040516100ea9190610683565b60405180910390f35b3480156100ff57600080fd5b5061010861021b565b604051610115919061072e565b60405180910390f35b34801561012a57600080fd5b506101336102a9565b6040516101409190610683565b60405180910390f35b34801561015557600080fd5b5061015e6102af565b005b34801561016c57600080fd5b506101756103f3565b604051610182919061075f565b60405180910390f35b34801561019757600080fd5b506101a0610419565b6040516101ad9190610683565b60405180910390f35b6101d060048036038101906101cb91906107a6565b61041f565b005b3480156101de57600080fd5b506101e76105c3565b6040516101f49190610683565b60405180910390f35b60056020528060005260406000206000915090505481565b60035481565b6000805461022890610802565b80601f016020809104026020016040519081016040528092919081815260200182805461025490610802565b80156102a15780601f10610276576101008083540402835291602001916102a1565b820191906000526020600020905b81548152906001019060200180831161028457829003601f168201915b505050505081565b60015481565b600460009054906101000a900473ffffffffffffffffffffffffffffffffffffffff1673ffffffffffffffffffffffffffffffffffffffff163373ffffffffffffffffffffffffffffffffffffffff161461033f576040517f08c379a00000000000000000000000000000000000000000000000000000000081526004016103369061087f565b60405180910390fd5b600047905060008111610387576040517f08c379a000000000000000000000000000000000000000000000000000000000815260040161037e906108eb565b60405180910390fd5b600460009054906101000a900473ffffffffffffffffffffffffffffffffffffffff1673ffffffffffffffffffffffffffffffffffffffff166108fc829081150290604051600060405180830381858888f193505050501580156103ef573d6000803e3d6000fd5b5050565b600460009054906101000a900473ffffffffffffffffffffffffffffffffffffffff1681565b60025481565b60008111610462576040517f08c379a00000000000000000000000000000000000000000000000000000000081526004016104599061097d565b60405180910390fd5b6001548160035461047391906109cc565b11156104b4576040517f08c379a00000000000000000000000000000000000000000000000000000000081526004016104ab90610a4c565b60405180910390fd5b600254816104c29190610a6c565b3414610503576040517f08c379a00000000000000000000000000000000000000000000000000000000081526004016104fa90610afa565b60405180910390fd5b806003600082825461051591906109cc565b9250508190555080600560003373ffffffffffffffffffffffffffffffffffffffff1673ffffffffffffffffffffffffffffffffffffffff168152602001908152602001600020600082825461056b91906109cc565b925050819055503373ffffffffffffffffffffffffffffffffffffffff167f303026f7fc6b5fe40cf1b1ca575a6f395b34145669a68563671a5fc8334f341d826040516105b89190610683565b60405180910390a250565b60006003546001546105d59190610b1a565b905090565b600080fd5b600073ffffffffffffffffffffffffffffffffffffffff82169050919050565b600061060a826105df565b9050919050565b61061a816105ff565b811461062557600080fd5b50565b60008135905061063781610611565b92915050565b600060208284031215610653576106526105da565b5b600061066184828501610628565b91505092915050565b6000819050919050565b61067d8161066a565b82525050565b60006020820190506106986000830184610674565b92915050565b600081519050919050565b600082825260208201905092915050565b60005b838110156106d85780820151818401526020810190506106bd565b60008484015250505050565b6000601f19601f8301169050919050565b60006107008261069e565b61070a81856106a9565b935061071a8185602086016106ba565b610723816106e4565b840191505092915050565b6000602082019050818103600083015261074881846106f5565b905092915050565b610759816105ff565b82525050565b60006020820190506107746000830184610750565b92915050565b6107838161066a565b811461078e57600080fd5b50565b6000813590506107a08161077a565b92915050565b6000602082840312156107bc576107bb6105da565b5b60006107ca84828501610791565b91505092915050565b7f4e487b7100000000000000000000000000000000000000000000000000000000600052602260045260246000fd5b6000600282049050600182168061081a57607f821691505b60208210810361082d5761082c6107d3565b5b50919050565b7f4f6e6c79206f776e65722063616e207769746864726177000000000000000000600082015250565b60006108696017836106a9565b915061087482610833565b602082019050919050565b600060208201905081810360008301526108988161085c565b9050919050565b7f4e6f2066756e647320617661696c61626c650000000000000000000000000000600082015250565b60006108d56012836106a9565b91506108e08261089f565b602082019050919050565b60006020820190508181036000830152610904816108c8565b9050919050565b7f536861726520616d6f756e74206d75737420626520677265617465722074686160008201527f6e20300000000000000000000000000000000000000000000000000000000000602082015250565b60006109676023836106a9565b91506109728261090b565b604082019050919050565b600060208201905081810360008301526109968161095a565b9050919050565b7f4e487b7100000000000000000000000000000000000000000000000000000000600052601160045260246000fd5b60006109d78261066a565b91506109e28361066a565b92508282019050808211156109fa576109f961099d565b5b92915050565b7f4e6f7420656e6f7567682073686172657320617661696c61626c650000000000600082015250565b6000610a36601b836106a9565b9150610a4182610a00565b602082019050919050565b60006020820190508181036000830152610a6581610a29565b9050919050565b6000610a778261066a565b9150610a828361066a565b9250828202610a908161066a565b91508282048414831517610aa757610aa661099d565b5b5092915050565b7f496e636f72726563742045544820616d6f756e742073656e7400000000000000600082015250565b6000610ae46019836106a9565b9150610aef82610aae565b602082019050919050565b60006020820190508181036000830152610b1381610ad7565b9050919050565b6000610b258261066a565b9150610b308361066a565b9250828203905081811115610b4857610b4761099d565b5b9291505056fea2646970667358221220c8ff7053f1612df45c1543b3daff258543dcfa3621af9002136a1606b071e54864736f6c634300081c0033",
  "linkReferences": {},
  "deployedLinkReferences": {}
}